:020000020000FC
:040000002DC00DC042
:10000A0007C0D8BA8D7F90E899BF93E095BF18953D
:10001A0081601895BFB681FF829B05C09194692DB6
:10002A007A2D9924AA24962F81FD972F8299929549
:10003A0098BB9927829B92E0892793E0829992E064
:10004A0095BFBFBE81FD189596EF92BF92E899BF02
:10005A0018950FED0DBFDD240FEFC02E0FE007BB83
:10006A0000E008BB08E601BB00E702BB00E40BBFE7
:10007A0003E005BF00E809BF04E00EBD05E003BFC9
:10008A0088279924AA247894939AE4D0939802D141
:10009A002FEF6894BCD0C0F391D0B0F32A3FA1F7F8
:1000AA00EED08CD088F38AD078F3E22E939A24EF9C
:1000BA00E894ECD0ACD040F380D030F32A3F21F75B
:1000CA007AD0F0F3822E79D0D8F3522E76D0C0F3BC
:1000DA00622E82FD20C0082D00950370D1F083FDA9
:1000EA002DC0939A86FA87F984FA86F9252D54D079
:1000FA00922E87FA87F985FA86F9262D4DD0A22EF7
:10010A0080FE969A80FC969881FE959A81FC959835
:10011A00D7CF8460D5CF082D037091F68B7F08E086
:10012A008027F89400E083FF00E40BBF789483FFF4
:10013A00C7CF0FEF08BB00E702BBC2CF939884FE7C
:10014A000BC0C39A86FC06C0052D0195033010F436
:10015A00C29A0BC0C29809C0C29A86FC05C0052D76
:10016A00033010F4C39A01C0C39885FE0BC0C09A2D
:10017A0087FC06C0062D0195033010F4C19AC0CF42
:10018A00C198BECFC19A87FC05C0062D033010F472
:10019A00C09AB6CFC098B4CF86FD219587FF27FDB8
:1001AA002FE7222309F40895C49902C026952395BE
:1001BA0086FD219508956AD001C064D088988998EF
:1001CA0080FD22C08099FCCF19D0F0F011D0E0F068
:1001DA0018E014D0C8F080990894279509D0A0F0A7
:1001EA001A95B9F70BD080F003D070F007D060F001
:1001FA0080FD0AC0819BFCCF8894089580FD04C0CD
:10020A008199FCCF889408958898089408959198C4
:10021A00899A2CD09098889A2BD0899829D018E05E
:10022A00EDDF90F3279510F0889A01C08898E0DFF7
:10023A0058F31A95A9F7E2DF38F388980EF0889AEE
:10024A00D7DF10F3DBDF00F38898D2DFE8F2D6DFDE
:10025A00D8F2CECF09E1402E03D04A94E9F70895A7
:10026A0008EC302E03D03A94E9F7089504E601C069
:10027A0005E0000000C000C00A95D9F708950027DC
:10028A000DBD0BC00CEF0DBD03EF07C003EF0DBD95
:10029A000BEC03C002EC0DBD07EF0CBD8E7F089579
:1007E0004D53585F4D4F55534520762E312E312EA7
:1007F0000D0A206B326B406C6973742E72750D0A92
:00000001FF
