:020000020000FC
:1000000030C0BFB683FF11C082990AC048BB80FED2
:10001000969A80FC969881FE959A81FC95981BC0D3
:100020009FEF98BB90E792BB16C0829B09C098B720
:1000300091FF06C098BF8D7F692D7A2D9924AA243F
:10004000962F81FD972F8299929598BB99EF92BF39
:1000500092E0829B892793E0829992E095BFBFBE90
:1000600018950FED0DBF0FE007BB00E008BB08E6D9
:1000700001BB00E702BB00E40BBF00E009BF04E0E6
:100080000EBD05E003BFACD08827F89483FF07C0FE
:100090004FEF48BB00E702BB02E005BF08C0992450
:1000A000AA2400EF08BB08E702BB03E005BF789471
:1000B000A8D0E8F3822EA5D0D0F3522EA2D0B8F368
:1000C000622E82FD0BC0082D0095037029F083FD80
:1000D00024D083FF0AD0EBCF8460E9CF082D0370D2
:1000E00031F78B7F08E08027D0CF86FA87F984FA32
:1000F00086F9252D3FD0922E919487FA87F985FABB
:1001000086F9262D37D0A22E80FE969A80FC9698EE
:1001100081FE959A81FC9598089584FE0BC04860F5
:1001200086FC06C0052D0195033010F444600BC019
:100130004B7F09C0446086FC05C0052D033010F4D8
:10014000486001C0477F85FE0BC0416087FC06C048
:10015000062D0195033010F4426008954D7F0895F7
:10016000426087FC05C0062D033010F441600895FD
:100170004E7F089586FD219587FF27FD2FE72223D7
:1001800009F40895C49902C02695239586FD21950A
:10019000089509E1402E03D04A94E9F7089508EC48
:1001A000302E03D03A94E9F7089504E601C005E043
:1001B000000000C000C00A95D9F708950FEF0DBDEB
:1001C00002EC0AC00EEF0DBD0CE206C00DEF0DBD36
:1001D0000FE802C000270DBD0CBD00E808BF089560
:1001E000939AD7DF9398D5DF2FEF31D0C8F3F2DFA2
:1001F00009D0B0F307D0A0F324EF29D088F3939A65
:100200000895E4DF8898899808B707FD1BC0809996
:10021000FBCFD4DF58D0B0F04FD0A0F018E053D0CF
:1002200088F080990894279547D060F01A95B9F71F
:100230004AD040F041D030F046D020F03DD010F010
:10024000899A08958898899A089408952F912F93F0
:1002500008D028F0D6DF18F02E3FC1F32A3F0F91C7
:100260000895899AA2DF889AA2DF8998A0DFAADF81
:100270002AD0F8F0A3DF18E0332702C024D0C8F05A
:10028000279510F0889A02C08898339515D088F089
:100290001A95A1F718D068F0889830FD889A0CD08C
:1002A00040F011D030F0889807D018F00CD008F04A
:1002B00003D08898899A089508B707FD0BC0819BE1
:1002C000FBCF8894089508B707FD04C08199FBCF40
:0802D000889408950894089534
:1007E0004D53585F4D4F55534520762E322E312EA6
:1007F0000D0A206B326B406C6973742E72750D0A92
:00000001FF
